{
  "contractName": "ChoiHui",
  "abi": [
    {
      "inputs": [
        {
          "internalType": "uint256",
          "name": "_soThanhVienToiDa",
          "type": "uint256"
        },
        {
          "internalType": "uint256",
          "name": "_tienMotKy",
          "type": "uint256"
        }
      ],
      "stateMutability": "nonpayable",
      "type": "constructor"
    },
    {
      "anonymous": false,
      "inputs": [
        {
          "indexed": false,
          "internalType": "address",
          "name": "thanhVien",
          "type": "address"
        }
      ],
      "name": "BiLoaiKhoiHui",
      "type": "event"
    },
    {
      "anonymous": false,
      "inputs": [
        {
          "indexed": false,
          "internalType": "address",
          "name": "thanhVien",
          "type": "address"
        },
        {
          "indexed": false,
          "internalType": "uint256",
          "name": "soTien",
          "type": "uint256"
        }
      ],
      "name": "DongTienHui",
      "type": "event"
    },
    {
      "anonymous": false,
      "inputs": [
        {
          "indexed": false,
          "internalType": "address",
          "name": "thanhVien",
          "type": "address"
        },
        {
          "indexed": false,
          "internalType": "uint256",
          "name": "soTien",
          "type": "uint256"
        }
      ],
      "name": "HuiVienHutHui",
      "type": "event"
    },
    {
      "anonymous": false,
      "inputs": [
        {
          "indexed": false,
          "internalType": "address",
          "name": "thanhVien",
          "type": "address"
        },
        {
          "indexed": false,
          "internalType": "uint256",
          "name": "soTienKeuHui",
          "type": "uint256"
        }
      ],
      "name": "HuiVienKeuHui",
      "type": "event"
    },
    {
      "anonymous": false,
      "inputs": [
        {
          "indexed": false,
          "internalType": "address",
          "name": "thanhVien",
          "type": "address"
        },
        {
          "indexed": false,
          "internalType": "uint256",
          "name": "soTien",
          "type": "uint256"
        }
      ],
      "name": "KyQuyDuocTra",
      "type": "event"
    },
    {
      "anonymous": false,
      "inputs": [
        {
          "indexed": false,
          "internalType": "address",
          "name": "thanhVien",
          "type": "address"
        },
        {
          "indexed": false,
          "internalType": "uint256",
          "name": "tienKyQuy",
          "type": "uint256"
        }
      ],
      "name": "ThanhVienThamGia",
      "type": "event"
    },
    {
      "anonymous": false,
      "inputs": [
        {
          "indexed": false,
          "internalType": "address",
          "name": "nguoiNhan",
          "type": "address"
        },
        {
          "indexed": false,
          "internalType": "uint256",
          "name": "soTienKeuHui",
          "type": "uint256"
        }
      ],
      "name": "ThongBaoNguoiNhanHui",
      "type": "event"
    },
    {
      "anonymous": false,
      "inputs": [
        {
          "indexed": false,
          "internalType": "address",
          "name": "thanhVien",
          "type": "address"
        },
        {
          "indexed": false,
          "internalType": "uint256",
          "name": "soTien",
          "type": "uint256"
        }
      ],
      "name": "TraTienHui",
      "type": "event"
    },
    {
      "anonymous": false,
      "inputs": [
        {
          "indexed": false,
          "internalType": "address",
          "name": "thanhVien",
          "type": "address"
        },
        {
          "indexed": false,
          "internalType": "string",
          "name": "lyDo",
          "type": "string"
        }
      ],
      "name": "ViPhamDongTien",
      "type": "event"
    },
    {
      "inputs": [],
      "name": "chuHui",
      "outputs": [
        {
          "internalType": "address",
          "name": "",
          "type": "address"
        }
      ],
      "stateMutability": "view",
      "type": "function",
      "constant": true
    },
    {
      "inputs": [
        {
          "internalType": "address",
          "name": "",
          "type": "address"
        }
      ],
      "name": "danhSachHuiVien",
      "outputs": [
        {
          "internalType": "address payable",
          "name": "diaChi",
          "type": "address"
        },
        {
          "internalType": "uint256",
          "name": "soLanChamDong",
          "type": "uint256"
        },
        {
          "internalType": "bool",
          "name": "daHutHui",
          "type": "bool"
        },
        {
          "internalType": "uint256",
          "name": "soTienKeuHui",
          "type": "uint256"
        },
        {
          "internalType": "bool",
          "name": "daDongTienHui",
          "type": "bool"
        },
        {
          "internalType": "bool",
          "name": "laHuiChet",
          "type": "bool"
        },
        {
          "internalType": "uint256",
          "name": "soTienKyQuy",
          "type": "uint256"
        }
      ],
      "stateMutability": "view",
      "type": "function",
      "constant": true
    },
    {
      "inputs": [
        {
          "internalType": "uint256",
          "name": "",
          "type": "uint256"
        }
      ],
      "name": "danhSachNguoiChoi",
      "outputs": [
        {
          "internalType": "address",
          "name": "",
          "type": "address"
        }
      ],
      "stateMutability": "view",
      "type": "function",
      "constant": true
    },
    {
      "inputs": [],
      "name": "huiKetThuc",
      "outputs": [
        {
          "internalType": "bool",
          "name": "",
          "type": "bool"
        }
      ],
      "stateMutability": "view",
      "type": "function",
      "constant": true
    },
    {
      "inputs": [
        {
          "internalType": "uint256",
          "name": "",
          "type": "uint256"
        }
      ],
      "name": "kyDaDongXong",
      "outputs": [
        {
          "internalType": "bool",
          "name": "",
          "type": "bool"
        }
      ],
      "stateMutability": "view",
      "type": "function",
      "constant": true
    },
    {
      "inputs": [],
      "name": "kyHienTai",
      "outputs": [
        {
          "internalType": "uint256",
          "name": "",
          "type": "uint256"
        }
      ],
      "stateMutability": "view",
      "type": "function",
      "constant": true
    },
    {
      "inputs": [],
      "name": "kyState",
      "outputs": [
        {
          "internalType": "enum ChoiHui.KyState",
          "name": "",
          "type": "uint8"
        }
      ],
      "stateMutability": "view",
      "type": "function",
      "constant": true
    },
    {
      "inputs": [],
      "name": "nguoiNhanHui",
      "outputs": [
        {
          "internalType": "address",
          "name": "",
          "type": "address"
        }
      ],
      "stateMutability": "view",
      "type": "function",
      "constant": true
    },
    {
      "inputs": [],
      "name": "soThanhVienToiDa",
      "outputs": [
        {
          "internalType": "uint256",
          "name": "",
          "type": "uint256"
        }
      ],
      "stateMutability": "view",
      "type": "function",
      "constant": true
    },
    {
      "inputs": [],
      "name": "tienKyQuyToiThieu",
      "outputs": [
        {
          "internalType": "uint256",
          "name": "",
          "type": "uint256"
        }
      ],
      "stateMutability": "view",
      "type": "function",
      "constant": true
    },
    {
      "inputs": [],
      "name": "tienMotKy",
      "outputs": [
        {
          "internalType": "uint256",
          "name": "",
          "type": "uint256"
        }
      ],
      "stateMutability": "view",
      "type": "function",
      "constant": true
    },
    {
      "inputs": [],
      "name": "tongSoKy",
      "outputs": [
        {
          "internalType": "uint256",
          "name": "",
          "type": "uint256"
        }
      ],
      "stateMutability": "view",
      "type": "function",
      "constant": true
    },
    {
      "inputs": [],
      "name": "tongTienDaDong",
      "outputs": [
        {
          "internalType": "uint256",
          "name": "",
          "type": "uint256"
        }
      ],
      "stateMutability": "view",
      "type": "function",
      "constant": true
    },
    {
      "inputs": [],
      "name": "thamGiaHui",
      "outputs": [],
      "stateMutability": "payable",
      "type": "function",
      "payable": true
    },
    {
      "inputs": [
        {
          "internalType": "uint256",
          "name": "bidAmount",
          "type": "uint256"
        }
      ],
      "name": "keuHui",
      "outputs": [],
      "stateMutability": "nonpayable",
      "type": "function"
    },
    {
      "inputs": [],
      "name": "chonNguoiNhanHui",
      "outputs": [],
      "stateMutability": "nonpayable",
      "type": "function"
    },
    {
      "inputs": [],
      "name": "dongTienHui",
      "outputs": [],
      "stateMutability": "payable",
      "type": "function",
      "payable": true
    },
    {
      "inputs": [],
      "name": "traTienHui",
      "outputs": [],
      "stateMutability": "nonpayable",
      "type": "function"
    },
    {
      "inputs": [],
      "name": "traLaiTienKyQuy",
      "outputs": [],
      "stateMutability": "nonpayable",
      "type": "function"
    },
    {
      "inputs": [],
      "name": "xuLyViPham",
      "outputs": [],
      "stateMutability": "nonpayable",
      "type": "function"
    }
  ],
  "bytecode": "0x60806040523480156200001157600080fd5b5060405162001c2338038062001c238339810160408190526200003491620000ac565b600080546001600160a01b0319163317905560018290556200005f81670de0b6b3a7640000620000f1565b6002908155620000709082620000d0565b6200008490670de0b6b3a7640000620000f1565b6005555060035560016004556008805460ff19908116909155600a805490911690556200011d565b60008060408385031215620000bf578182fd5b505080516020909101519092909150565b600082620000ec57634e487b7160e01b81526012600452602481fd5b500490565b60008160001904831182151516156200011857634e487b7160e01b81526011600452602481fd5b500290565b611af6806200012d6000396000f3fe60806040526004361061011f5760003560e01c806358816304116100a0578063b96d450011610064578063b96d4500146102b2578063c26c0db7146102c7578063c5822c28146102cf578063ca049a4a14610302578063d1cea3b7146103175761011f565b8063588163041461023e5780636e7f5b831461025357806373228736146102735780639666f54a14610288578063a250400b1461029d5761011f565b806334486203116100e757806334486203146101b2578063392d2f70146101c75780633ecdc72d146101f45780634fa195bc1461020957806352f29eb8146102295761011f565b80630aa443b51461012457806316c4b0291461014f5780631ddb93cb1461015957806326c64da01461017b5780632b068b5714610190575b600080fd5b34801561013057600080fd5b5061013961032c565b604051610146919061149b565b60405180910390f35b610157610335565b005b34801561016557600080fd5b5061016e610545565b6040516101469190611a38565b34801561018757600080fd5b5061015761054b565b34801561019c57600080fd5b506101a5610729565b60405161014691906114a6565b3480156101be57600080fd5b5061016e610732565b3480156101d357600080fd5b506101e76101e23660046113bf565b610738565b60405161014691906113d7565b34801561020057600080fd5b506101e7610762565b34801561021557600080fd5b506101576102243660046113bf565b610771565b34801561023557600080fd5b5061016e610900565b34801561024a57600080fd5b5061016e610906565b34801561025f57600080fd5b5061013961026e3660046113bf565b61090c565b34801561027f57600080fd5b50610157610921565b34801561029457600080fd5b50610157610a94565b3480156102a957600080fd5b5061016e610efa565b3480156102be57600080fd5b506101e7610f00565b610157610f0f565b3480156102db57600080fd5b506102ef6102ea366004611391565b6110db565b60405161014697969594939291906113eb565b34801561030e57600080fd5b5061016e611129565b34801561032357600080fd5b5061015761112f565b60085460ff1681565b336000908152600b60205260409020546001600160a01b03166103735760405162461bcd60e51b815260040161036a9061159c565b60405180910390fd5b60085460ff16156103965760405162461bcd60e51b815260040161036a906116e8565b6001600a5460ff1660028111156103bd57634e487b7160e01b600052602160045260246000fd5b146103da5760405162461bcd60e51b815260040161036a906115d3565b6006546001600160a01b03166104025760405162461bcd60e51b815260040161036a906116b1565b336000908152600b602052604090206004015460ff16156104355760405162461bcd60e51b815260040161036a90611786565b6006546001600160a01b03163314156104605760405162461bcd60e51b815260040161036a9061163f565b336000908152600b6020526040812060040154610100900460ff166104af576006546001600160a01b03166000908152600b60205260409020600301546002546104aa9190611a78565b6104b3565b6002545b90508034146104d45760405162461bcd60e51b815260040161036a90611951565b336000908152600b60205260408120600401805460ff1916600117905560078054349290610503908490611a41565b90915550506040517fa0355b06776528bca8f813f18e2e4a56512b5b8909a6cce9fa391f8c3e6a4c719061053a9033903490611482565b60405180910390a150565b60045481565b6000546001600160a01b031633146105755760405162461bcd60e51b815260040161036a90611851565b60005b600c54811015610726576000600c82815481106105a557634e487b7160e01b600052603260045260246000fd5b60009182526020808320909101546001600160a01b0316808352600b90915260409091206004015490915060ff161580156105f957506001600160a01b038181166000908152600b60205260409020541615155b801561062157506001600160a01b0381166000908152600b602052604090206002015460ff16155b15610713576001600160a01b0381166000908152600b6020526040902060050154801561067c57806007600082825461065a9190611a41565b90915550506001600160a01b0382166000908152600b60205260408120600501555b6001600160a01b0382166000908152600b60205260409081902080546001600160a01b0319169055517f44543aed83a3195b4816ead7127b867e497115c3b99663cecf599456d4e81ec5906106d29084906113d7565b60405180910390a17f9e75252a8375e1139e97545d3427996212484eaf62c4849fb55b17ed729e33c682604051610709919061142a565b60405180910390a1505b508061071e81611a8f565b915050610578565b50565b600a5460ff1681565b60035481565b600c818154811061074857600080fd5b6000918252602090912001546001600160a01b0316905081565b6000546001600160a01b031681565b336000908152600b60205260409020546001600160a01b03166107a65760405162461bcd60e51b815260040161036a9061159c565b60085460ff16156107c95760405162461bcd60e51b815260040161036a906116e8565b6000600a5460ff1660028111156107f057634e487b7160e01b600052602160045260246000fd5b1461080d5760405162461bcd60e51b815260040161036a90611a01565b336000908152600b602052604090206002015460ff16156108405760405162461bcd60e51b815260040161036a906119bf565b60035460045411156108645760405162461bcd60e51b815260040161036a906116e8565b60025461087982670de0b6b3a7640000611a59565b106108965760405162461bcd60e51b815260040161036a906118bd565b6108a881670de0b6b3a7640000611a59565b336000818152600b60205260409020600301919091557fd48b04837c2aade94e5b89a58e8054397566db098ff7bacd2cc570f9c8c39370906108f283670de0b6b3a7640000611a59565b60405161053a929190611482565b60015481565b60055481565b60096020526000908152604090205460ff1681565b6000546001600160a01b0316331461094b5760405162461bcd60e51b815260040161036a90611851565b60085460ff1661096d5760405162461bcd60e51b815260040161036a906114ce565b60005b600c54811015610726576000600c828154811061099d57634e487b7160e01b600052603260045260246000fd5b60009182526020808320909101546001600160a01b03908116808452600b9092526040909220549092501615610a81576001600160a01b0381166000908152600b60205260409020600501548015610a7f576040516001600160a01b0383169082156108fc029083906000818181858888f19350505050158015610a25573d6000803e3d6000fd5b506001600160a01b0382166000908152600b602052604080822060050191909155517faaa5c338c213723136318b823fe5af073b70d69066fe8f0f1287cc439c81872690610a769084908490611482565b60405180910390a15b505b5080610a8c81611a8f565b915050610970565b6000546001600160a01b03163314610abe5760405162461bcd60e51b815260040161036a90611851565b60085460ff1615610ae15760405162461bcd60e51b815260040161036a906116e8565b6001600a5460ff166002811115610b0857634e487b7160e01b600052602160045260246000fd5b14610b255760405162461bcd60e51b815260040161036a9061191a565b6006546001600160a01b0316610b4d5760405162461bcd60e51b815260040161036a9061181a565b60005b600c54811015610c15576000600c8281548110610b7d57634e487b7160e01b600052603260045260246000fd5b6000918252602090912001546006546001600160a01b039182169250168114801590610bc257506001600160a01b038181166000908152600b60205260409020541615155b15610c02576001600160a01b0381166000908152600b602052604090206004015460ff16610c025760405162461bcd60e51b815260040161036a9061160a565b5080610c0d81611a8f565b915050610b50565b506000805b600c54811015610d19576000600c8281548110610c4757634e487b7160e01b600052603260045260246000fd5b6000918252602090912001546006546001600160a01b039182169250168114801590610c8c57506001600160a01b038181166000908152600b60205260409020541615155b15610d06576001600160a01b0381166000908152600b6020526040902060040154610100900460ff1615610cce57600254610cc79084611a41565b9250610d06565b6006546001600160a01b03166000908152600b6020526040902060030154600254610cf99190611a78565b610d039084611a41565b92505b5080610d1181611a8f565b915050610c1a565b508060075414610d3b5760405162461bcd60e51b815260040161036a906117bd565b6006546007546040516001600160a01b039092169181156108fc0291906000818181858888f19350505050158015610d77573d6000803e3d6000fd5b50600680546001600160a01b039081166000908152600b6020526040808220600201805460ff1916600117905583548316825290819020600401805461ff001916610100179055915460075492517f4e933d507898d8eec4fd48994a636ba17e4e7b98c032730128578b23e7f2673f93610df693929092169190611482565b60405180910390a16004546000908152600960205260408120805460ff19166001179055600680546001600160a01b031916905560078190555b600c54811015610eaa576000600b6000600c8481548110610e6157634e487b7160e01b600052603260045260246000fd5b6000918252602080832091909101546001600160a01b031683528201929092526040019020600401805460ff191691151591909117905580610ea281611a8f565b915050610e30565b5060048054906000610ebb83611a8f565b91905055506003546004541115610eed576008805460ff19908116600117909155600a80549091166002179055610726565b50600a805460ff19169055565b60025481565b6006546001600160a01b031681565b60085460ff1615610f325760405162461bcd60e51b815260040161036a90611742565b600154600c5410610f555760405162461bcd60e51b815260040161036a90611712565b6005543414610f765760405162461bcd60e51b815260040161036a9061154d565b336000908152600b60205260409020546001600160a01b031615610fac5760405162461bcd60e51b815260040161036a90611682565b6040805160e0810182523380825260006020808401828152848601838152606086018481526080870185815260a088018681523460c08a01818152898952600b9097528a882099518a546001600160a01b03919091166001600160a01b0319918216178b55955160018b810191909155945160028b01805491151560ff19928316179055935160038b0155915160048a018054925115156101000261ff0019921515939095169290921716929092179091559251600590960195909555600c805495860181559092527fdf6966c971051c3d54ec59162606531493a51404a002842f56009d7e5cf4a8c790930180549091168217905591517fee0d11243b27014ed7a4984ae8c407b9424592da1cfc029b89027eca958a2f01926110d1929091611482565b60405180910390a1565b600b602052600090815260409020805460018201546002830154600384015460048501546005909501546001600160a01b0390941694929360ff928316939192828116926101009004169087565b60075481565b6000546001600160a01b031633146111595760405162461bcd60e51b815260040161036a90611851565b60085460ff161561117c5760405162461bcd60e51b815260040161036a906116e8565b6000600a5460ff1660028111156111a357634e487b7160e01b600052602160045260246000fd5b146111c05760405162461bcd60e51b815260040161036a90611888565b6006546001600160a01b0316156111e95760405162461bcd60e51b815260040161036a90611516565b60008080805b600c548110156112f6576000600c828154811061121c57634e487b7160e01b600052603260045260246000fd5b60009182526020808320909101546001600160a01b0316808352600b90915260409091206002015490915060ff1615611261578261125981611a8f565b935050611265565b8093505b6001600160a01b0381166000908152600b602052604090206002015460ff161580156112ab57506001600160a01b0381166000908152600b602052604090206003015485105b156112e3576001600160a01b0381166000818152600b6020526040902060030154600680546001600160a01b03191690921790915594505b50806112ee81611a8f565b9150506111ef565b50600180546113059190611a78565b81141561132857600680546001600160a01b0319166001600160a01b0384161790555b6006546001600160a01b03166000818152600b6020526040908190206003015490517f494c79c6ee0c07ba2120e2fbc5cdc8d30c9b035e24296a037c50d13b52f84d7d92611377929091611482565b60405180910390a15050600a805460ff1916600117905550565b6000602082840312156113a2578081fd5b81356001600160a01b03811681146113b8578182fd5b9392505050565b6000602082840312156113d0578081fd5b5035919050565b6001600160a01b0391909116815260200190565b6001600160a01b0397909716875260208701959095529215156040860152606085019190915215156080840152151560a083015260c082015260e00190565b6001600160a01b039190911681526040602082018190526026908201527f4b686f6e6720646f6e67207469656e206875692064756e672068616e20285669606082015265207068616d2960d01b608082015260a00190565b6001600160a01b03929092168252602082015260400190565b901515815260200190565b60208101600383106114c857634e487b7160e01b600052602160045260246000fd5b91905290565b60208082526028908201527f4875692063687561206b657420746875632c206b686f6e672074686520747261604082015267206b79207175792160c01b606082015260800190565b6020808252601c908201527f4e67756f69206e68616e206875692064612064756f632063686f6e2100000000604082015260600190565b6020808252602f908201527f536f207469656e206775692076616f206b686f6e672064756e6720766f69207160408201526e75792064696e68206b79207175792160881b606082015260800190565b6020808252601a908201527f42616e206b686f6e672070686169207468616e68207669656e21000000000000604082015260600190565b6020808252601c908201527f4b686f6e672074686520646f6e67207469656e206c7563206e61792100000000604082015260600190565b6020808252818101527f56616e20636f206e67756f69206368756120646f6e67207469656e2068756921604082015260600190565b60208082526023908201527f4e67756f69206e68616e20687569206b686f6e672063616e20646f6e67207469604082015262656e2160e81b606082015260800190565b60208082526015908201527442616e206461206c61207468616e68207669656e2160581b604082015260600190565b60208082526019908201527f436875612063686f6e206e67756f69206e68616e206875692100000000000000604082015260600190565b60208082526010908201526f487569206461206b657420746875632160801b604082015260600190565b60208082526016908201527548756920646120646179207468616e68207669656e2160501b604082015260600190565b60208082526024908201527f487569206461206b657420746875632c206b686f6e6720746865207468616d206040820152636769612160e01b606082015260800190565b60208082526018908201527f42616e20646120646f6e67207469656e206b79206e6179210000000000000000604082015260600190565b6020808252603c908201527f43687561206475207469656e206465207472612120436f2074686520636f206e60408201527f67756f69206368756120646f6e6720686f6163207669207068616d2e00000000606082015260800190565b60208082526017908201527f4368756120636f206e67756f69206e68616e2068756921000000000000000000604082015260600190565b6020808252601c908201527f43686920636f2063687520687569206d6f6920636f20717579656e2100000000604082015260600190565b6020808252818101527f436875612064656e206c75632063686f6e206e67756f69206875742068756921604082015260600190565b60208082526037908201527f536f207469656e206b6575206875692070686169206e686f20686f6e2074696560408201527f6e206d6f74206b79202864616e67206c61202e2e2e2921000000000000000000606082015260800190565b6020808252601b908201527f4b686f6e672074686520747261207469656e206c7563206e6179210000000000604082015260600190565b60208082526048908201527f53616920736f207469656e2063616e20646f6e672120567569206c6f6e67206b60408201527f69656d2074726120277469656e4d6f744b792720686f61632027736f5469656e60608201526725b2baa43ab4939760c11b608082015260a00190565b60208082526022908201527f42616e20646120687574206875692c206b686f6e6720746865206b6575206c61604082015261692160f01b606082015260800190565b6020808252601a908201527f4b686f6e6720746865206b657520687569206c7563206e617921000000000000604082015260600190565b90815260200190565b60008219821115611a5457611a54611aaa565b500190565b6000816000190483118215151615611a7357611a73611aaa565b500290565b600082821015611a8a57611a8a611aaa565b500390565b6000600019821415611aa357611aa3611aaa565b5060010190565b634e487b7160e01b600052601160045260246000fdfea2646970667358221220c076cb4b5303a874ec92956bf9668216663e2f6ffe8d11cb982786fd6f7349f564736f6c63430008000033",
  "immutableReferences": {},
  "source": "// SPDX-License-Identifier: MIT\r\npragma solidity ^0.8.0;\r\n\r\n/**\r\n * @title ChoiHui\r\n * Hp ng m phng chi hi vi logic:\r\n *  - Tham gia + k qu\r\n *  - Ku hi (bid)\r\n *  - Chn ngi nhn hi\r\n *  - ng tin hi, tr hi\r\n *  - X l vi phm & hon tr k qu\r\n */\r\ncontract ChoiHui {\r\n    // Xc nh cc trng thi chnh ca mt K hi (state machine)\r\n    enum KyState {\r\n        KEU_HUI,      // Ch mi ngi ku hi\r\n        DONG_TIEN,    // ang ng tin cho ngi thng\r\n        HOAN_TAT      // Hon tt k\r\n    }\r\n\r\n    struct ThanhVien {\r\n        address payable diaChi;\r\n        uint256 soLanChamDong;\r\n        bool daHutHui;\r\n        uint256 soTienKeuHui;\r\n        bool daDongTienHui;\r\n        bool laHuiChet;\r\n        // B SUNG: Lu li tin k qu thc s m thnh vin  np\r\n        uint256 soTienKyQuy;\r\n    }\r\n\r\n    address public chuHui;\r\n    uint256 public soThanhVienToiDa;\r\n    uint256 public tienMotKy;         // n v: ETH\r\n    uint256 public tongSoKy;\r\n    uint256 public kyHienTai;\r\n    uint256 public tienKyQuyToiThieu; // n v: ETH\r\n\r\n    address public nguoiNhanHui;\r\n    uint256 public tongTienDaDong;\r\n\r\n    // nh du khi  kt thc ht cc k\r\n    bool public huiKetThuc;\r\n\r\n    // nh du k  ng xong\r\n    // key: k (1..tongSoKy), value:  ng xong?\r\n    mapping(uint256 => bool) public kyDaDongXong;\r\n\r\n    // B SUNG: Trng thi k hin ti (state machine cho tng k)\r\n    KyState public kyState;\r\n\r\n    // Danh sch thnh vin\r\n    mapping(address => ThanhVien) public danhSachHuiVien;\r\n    address[] public danhSachNguoiChoi;\r\n\r\n    // S kin\r\n    event ThanhVienThamGia(address thanhVien, uint256 tienKyQuy);\r\n    event HuiVienKeuHui(address thanhVien, uint256 soTienKeuHui);\r\n    event HuiVienHutHui(address thanhVien, uint256 soTien);\r\n    event BiLoaiKhoiHui(address thanhVien);\r\n    event DongTienHui(address thanhVien, uint256 soTien);\r\n    event TraTienHui(address thanhVien, uint256 soTien);\r\n\r\n    // B SUNG: S kin khi tr li tin k qu\r\n    event KyQuyDuocTra(address thanhVien, uint256 soTien);\r\n\r\n    // S kin vi phm c th\r\n    event ViPhamDongTien(address thanhVien, string lyDo);\r\n\r\n    // Khi ch hi  chn xong ngi nhn, thng bo ai nhn\r\n    event ThongBaoNguoiNhanHui(address nguoiNhan, uint256 soTienKeuHui);\r\n\r\n    modifier chiChuHui() {\r\n        require(msg.sender == chuHui, \"Chi co chu hui moi co quyen!\");\r\n        _;\r\n    }\r\n\r\n    modifier chiThanhVien() {\r\n        require(danhSachHuiVien[msg.sender].diaChi != address(0), \"Ban khong phai thanh vien!\");\r\n        _;\r\n    }\r\n\r\n    constructor(uint256 _soThanhVienToiDa, uint256 _tienMotKy) {\r\n        chuHui = msg.sender;\r\n        soThanhVienToiDa = _soThanhVienToiDa;\r\n        tienMotKy = _tienMotKy * 1 ether;           // Chuyn i sang n v ETH\r\n        tienKyQuyToiThieu = _tienMotKy / 2 * 1 ether; // Tin k qu bng 50% s tin mt k\r\n        tongSoKy = _soThanhVienToiDa;\r\n        kyHienTai = 1;\r\n        huiKetThuc = false;\r\n\r\n        // BT U K 1:  trng thi KEU_HUI\r\n        kyState = KyState.KEU_HUI;\r\n    }\r\n\r\n    // ===========================\r\n    // 1) Tham gia hi\r\n    // ===========================\r\n    function thamGiaHui() public payable {\r\n        require(!huiKetThuc, \"Hui da ket thuc, khong the tham gia!\");\r\n        require(danhSachNguoiChoi.length < soThanhVienToiDa, \"Hui da day thanh vien!\");\r\n        require(msg.value == tienKyQuyToiThieu, \"So tien gui vao khong dung voi quy dinh ky quy!\");\r\n        require(danhSachHuiVien[msg.sender].diaChi == address(0), \"Ban da la thanh vien!\");\r\n\r\n        danhSachHuiVien[msg.sender] = ThanhVien({\r\n            diaChi: payable(msg.sender),\r\n            soLanChamDong: 0,\r\n            daHutHui: false,\r\n            soTienKeuHui: 0,\r\n            daDongTienHui: false,\r\n            laHuiChet: false,\r\n            soTienKyQuy: msg.value\r\n        });\r\n        danhSachNguoiChoi.push(msg.sender);\r\n\r\n        emit ThanhVienThamGia(msg.sender, msg.value);\r\n    }\r\n\r\n    // ===========================\r\n    // 2) Ku hi\r\n    // ===========================\r\n    function keuHui(uint256 bidAmount) public chiThanhVien {\r\n        require(!huiKetThuc, \"Hui da ket thuc!\");\r\n        require(kyState == KyState.KEU_HUI, \"Khong the keu hui luc nay!\");\r\n        require(!danhSachHuiVien[msg.sender].daHutHui, \"Ban da hut hui, khong the keu lai!\");\r\n        require(kyHienTai <= tongSoKy, \"Hui da ket thuc!\");\r\n        require(bidAmount * 1 ether < tienMotKy, \"So tien keu hui phai nho hon tien mot ky (dang la ...)!\");\r\n\r\n        // NOTE: If bidAmount == 0 => ku 0, logic tu policy\r\n        danhSachHuiVien[msg.sender].soTienKeuHui = bidAmount * 1 ether;\r\n        emit HuiVienKeuHui(msg.sender, bidAmount * 1 ether);\r\n    }\r\n\r\n    // ===========================\r\n    // 3) Chn ngi nhn hi\r\n    // ===========================\r\n    function chonNguoiNhanHui() public chiChuHui {\r\n        require(!huiKetThuc, \"Hui da ket thuc!\");\r\n        require(kyState == KyState.KEU_HUI, \"Chua den luc chon nguoi hut hui!\");\r\n        require(nguoiNhanHui == address(0), \"Nguoi nhan hui da duoc chon!\");\r\n\r\n        // Tm maxBid\r\n        uint256 maxBid = 0;\r\n        address lastMember;\r\n        uint256 countHuiChet = 0;\r\n        for (uint256 i = 0; i < danhSachNguoiChoi.length; i++) {\r\n            address _nguoiChoi = danhSachNguoiChoi[i];\r\n            if (danhSachHuiVien[_nguoiChoi].daHutHui) {\r\n                countHuiChet++;\r\n            } else {\r\n                // Ghi nh ai l ngi cha nhn\r\n                lastMember = _nguoiChoi;\r\n            }\r\n            if (\r\n                !danhSachHuiVien[_nguoiChoi].daHutHui &&\r\n                danhSachHuiVien[_nguoiChoi].soTienKeuHui > maxBid\r\n            ) {\r\n                maxBid = danhSachHuiVien[_nguoiChoi].soTienKeuHui;\r\n                nguoiNhanHui = _nguoiChoi;\r\n            }\r\n        }\r\n\r\n        // Trng hp ch cn 1 ngi cha nhn => auto\r\n        if (countHuiChet == soThanhVienToiDa - 1) {\r\n            nguoiNhanHui = lastMember;\r\n        }\r\n\r\n        emit ThongBaoNguoiNhanHui(nguoiNhanHui, danhSachHuiVien[nguoiNhanHui].soTienKeuHui);\r\n\r\n        // Chuyn sang trng thi DONG_TIEN\r\n        kyState = KyState.DONG_TIEN;\r\n    }\r\n\r\n    // ===========================\r\n    // 4) ng tin hi\r\n    // ===========================\r\n    function dongTienHui() public payable chiThanhVien {\r\n        require(!huiKetThuc, \"Hui da ket thuc!\");\r\n        require(kyState == KyState.DONG_TIEN, \"Khong the dong tien luc nay!\");\r\n        require(nguoiNhanHui != address(0), \"Chua chon nguoi nhan hui!\");\r\n        require(!danhSachHuiVien[msg.sender].daDongTienHui, \"Ban da dong tien ky nay!\");\r\n        require(msg.sender != nguoiNhanHui, \"Nguoi nhan hui khong can dong tien!\");\r\n\r\n        uint256 soTienDong = danhSachHuiVien[msg.sender].laHuiChet\r\n            ? tienMotKy\r\n            : (tienMotKy - danhSachHuiVien[nguoiNhanHui].soTienKeuHui);\r\n\r\n        require(\r\n            msg.value == soTienDong,\r\n            \"Sai so tien can dong! Vui long kiem tra 'tienMotKy' hoac 'soTienKeuHui'.\"\r\n        );\r\n\r\n        danhSachHuiVien[msg.sender].daDongTienHui = true;\r\n        tongTienDaDong += msg.value;\r\n        emit DongTienHui(msg.sender, msg.value);\r\n    }\r\n\r\n    // ===========================\r\n    // 5) Tr tin hi + qua k mi\r\n    // ===========================\r\n    function traTienHui() public chiChuHui {\r\n        require(!huiKetThuc, \"Hui da ket thuc!\");\r\n        require(kyState == KyState.DONG_TIEN, \"Khong the tra tien luc nay!\");\r\n        require(nguoiNhanHui != address(0), \"Chua co nguoi nhan hui!\");\r\n\r\n        // Kim tra tt c ngi cn li  dongTienHui?\r\n        for (uint256 i = 0; i < danhSachNguoiChoi.length; i++) {\r\n            address _nguoiChoi = danhSachNguoiChoi[i];\r\n            if (_nguoiChoi != nguoiNhanHui && danhSachHuiVien[_nguoiChoi].diaChi != address(0)) {\r\n                require(\r\n                    danhSachHuiVien[_nguoiChoi].daDongTienHui,\r\n                    \"Van co nguoi chua dong tien hui!\"\r\n                );\r\n            }\r\n        }\r\n\r\n        // Tnh tng tin cn ng\r\n        uint256 tongTienCanDong = 0;\r\n        for (uint256 i = 0; i < danhSachNguoiChoi.length; i++) {\r\n            address player = danhSachNguoiChoi[i];\r\n            if (player != nguoiNhanHui && danhSachHuiVien[player].diaChi != address(0)) {\r\n                if (danhSachHuiVien[player].laHuiChet) {\r\n                    tongTienCanDong += tienMotKy;\r\n                } else {\r\n                    tongTienCanDong += (tienMotKy - danhSachHuiVien[nguoiNhanHui].soTienKeuHui);\r\n                }\r\n            }\r\n        }\r\n        require(\r\n            tongTienDaDong == tongTienCanDong,\r\n            \"Chua du tien de tra! Co the co nguoi chua dong hoac vi pham.\"\r\n        );\r\n\r\n        // Tr tin cho nguoiNhanHui\r\n        payable(nguoiNhanHui).transfer(tongTienDaDong);\r\n        danhSachHuiVien[nguoiNhanHui].daHutHui = true;\r\n        danhSachHuiVien[nguoiNhanHui].laHuiChet = true;\r\n\r\n        emit TraTienHui(nguoiNhanHui, tongTienDaDong);\r\n\r\n        // nh du k  ng xong\r\n        kyDaDongXong[kyHienTai] = true;\r\n\r\n        // Reset k\r\n        nguoiNhanHui = address(0);\r\n        tongTienDaDong = 0;\r\n\r\n        for (uint256 j = 0; j < danhSachNguoiChoi.length; j++) {\r\n            danhSachHuiVien[danhSachNguoiChoi[j]].daDongTienHui = false;\r\n        }\r\n        kyHienTai++;\r\n\r\n        // Nu  qua k cui => nh du kt thc\r\n        if (kyHienTai > tongSoKy) {\r\n            huiKetThuc = true;\r\n            kyState = KyState.HOAN_TAT;\r\n        } else {\r\n            // Sang k mi => v state KEU_HUI\r\n            kyState = KyState.KEU_HUI;\r\n        }\r\n    }\r\n\r\n    // ===========================\r\n    // 6) Tr li tin k qu (ch gi khi tht s kt thc)\r\n    // ===========================\r\n    function traLaiTienKyQuy() public chiChuHui {\r\n        require(huiKetThuc, \"Hui chua ket thuc, khong the tra ky quy!\");\r\n        // Ty policy: ch c gi 1 ln, c th set c chn\r\n\r\n        for (uint256 i = 0; i < danhSachNguoiChoi.length; i++) {\r\n            address thanhVien = danhSachNguoiChoi[i];\r\n            // Nu cn a ch hp l\r\n            if (danhSachHuiVien[thanhVien].diaChi != address(0)) {\r\n                uint256 deposit = danhSachHuiVien[thanhVien].soTienKyQuy;\r\n                if (deposit > 0) {\r\n                    payable(thanhVien).transfer(deposit);\r\n                    danhSachHuiVien[thanhVien].soTienKyQuy = 0;\r\n                    emit KyQuyDuocTra(thanhVien, deposit);\r\n                }\r\n            }\r\n        }\r\n    }\r\n\r\n    // ===========================\r\n    // 7) X l vi phm\r\n    // ===========================\r\n    function xuLyViPham() public chiChuHui {\r\n        // Duyt xem ai cha dongTienHui => vi phm\r\n        // Hoc tu policy: check deadline, check cha keuHui...\r\n        for (uint256 i = 0; i < danhSachNguoiChoi.length; i++) {\r\n            address violator = danhSachNguoiChoi[i];\r\n            if (\r\n                !danhSachHuiVien[violator].daDongTienHui &&\r\n                danhSachHuiVien[violator].diaChi != address(0) &&\r\n                !danhSachHuiVien[violator].daHutHui\r\n            ) {\r\n                // Tch thu k qu\r\n                uint256 deposit = danhSachHuiVien[violator].soTienKyQuy;\r\n                if (deposit > 0) {\r\n                    tongTienDaDong += deposit; // B vo qu\r\n                    danhSachHuiVien[violator].soTienKyQuy = 0;\r\n                }\r\n                // Loi\r\n                danhSachHuiVien[violator].diaChi = payable(address(0));\r\n\r\n                emit BiLoaiKhoiHui(violator);\r\n                emit ViPhamDongTien(violator, \"Khong dong tien hui dung han (Vi pham)\");\r\n            }\r\n        }\r\n    }\r\n}\r\n",
  "sourcePath": "C:\\Users\\duyca\\OneDrive\\My tnh\\HK2-3\\Block Chain - N.PThanh\\Giua_ki\\hui-dapp\\contracts\\ChoiHui.sol",
  "compiler": {
    "name": "solc",
    "version": "0.8.0+commit.c7dfd78e.Emscripten.clang"
  },
  "schemaVersion": "3.4.16",
  "updatedAt": "2025-03-14T16:10:51.597Z",
  "networkType": "ethereum",
  "devdoc": {
    "kind": "dev",
    "methods": {},
    "title": "ChoiHui Hp ng m phng chi hi vi logic:  - Tham gia + k qu  - Ku hi (bid)  - Chn ngi nhn hi  - ng tin hi, tr hi  - X l vi phm & hon tr k qu",
    "version": 1
  },
  "userdoc": {
    "kind": "user",
    "methods": {},
    "version": 1
  }
}